:020000040001F9
:10400000C83C0020A1410100B3410100B5410100BD
:1040100000000000000000000000000000000000A0
:10402000000000000000000000000000B741010097
:104030000000000000000000B9410100BB41010088
:10404000BD410100BD410100BD410100BD41010074
:10405000BD41010000000000697A0100BD4101007E
:10406000BD410100BD410100BD410100BD41010054
:10407000BD410100BD410100BD410100BD41010044
:10408000BD410100276F0100BD410100BD4101009C
:10409000496F0100BD410100BB760100BD41010037
:1040A000BD410100BD410100000000000000000012
:1040B0000000000000000000000000000000000000
:1040C00000F002F800F030F80CA030C808382418CE
:1040D0002D18A246671EAB4654465D46AC4201D140
:1040E00000F022F87E460F3E0FCCB6460126334242
:1040F00000D0FB1AA246AB463343184728490000BC
:10410000484900000023002400250026103A01D36E
:1041100078C1FBD8520700D330C100D50B6070477F
:104120001FB51FBD10B510BD03F0FAFF1146FFF714
:10413000F7FF00F020FC04F012F803B4FFF7F2FFE1
:1041400003BC04F019F80000401E00BF00BF00BF10
:1041500000BF00BF00BF00BF00BF00BF00BF00BF67
:1041600000BFF1D17047000070B505460C461646F9
:1041700002E00FCC0FC5103E102EFAD2082E02D34B
:1041800003CC03C5083E042E07D301CC01C5361F5E
:1041900003E021782970641C6D1C761EF9D270BD75
:1041A0000A48026803210A43026009488047094817
:1041B0000047FEE7FEE7FEE7FEE7FEE7FEE700005A
:1041C00005480649064A074B704700002405004091
:1041D0008D420100C1400100C82C0020C83C0020D5
:1041E000C8340020C8340020324833490860704782
:1041F0003248008CC0B2012812D13048808C0007B0
:10420000000F00280CD12D48806AF021084040287A
:1042100006D12A48C06A0840002801D10120704711
:104220000020FCE72548008CC0B201282CD123488F
:10423000808C0007000F002826D12048806AF021DA
:104240000840002806D11D48C06A0840002801D156
:10425000012070471948806AF0210840102806D1D3
:104260001648C06A0840002801D10120F1E7134830
:10427000806AF0210840302806D11048C06A084002
:10428000002801D10120E4E70020E2E710B5FFF7A4
:10429000C9FF002805D00A480A494860C8130A49DE
:1042A0008861FFF7A5FF002802D001200749886038
:1042B00010BD00000024F40000200020C00F00F01A
:1042C000DFFF07C000050040006C00400006004012
:1042D00070B504460D46164632462946204603F080
:1042E000B9FD70BD70B504460D462A462146F74813
:1042F000FFF7EEFF70BD10B5152000F05EFB162035
:1043000000F05BFB122000F058FB122000F055FB80
:1043100010BD38B500BFEE48EE4B052202210090DB
:10432000002002F015FE044600BF2546002D06D0F1
:1043300000BFE9A298212846FFF7CAFF00BF00BFCF
:1043400000BF38BD3EB500BF6846007801090901CD
:10435000491C009168460078F02188431030009095
:1043600000BF0D22DFA168467CDF044600BF254662
:10437000002D06D000BFD8A2AC212846FFF7A8FF29
:1043800000BF00BF0020019002905021684681804C
:10439000A021C18000210181FF219131418101A82B
:1043A0007ADF044600BF2546002D06D000BFCAA212
:1043B000B6212846FFF78CFF00BF00BF3EBD30B5D9
:1043C000A1B005210291CB4800680190CA48817CC8
:1043D000684681713C2112A803F0B9FD02201290B9
:1043E000012110A84173018202A915913C2103A863
:1043F00003F0ADFD01216846018501A90B9103A9D8
:1044000012A802F040F8044600BF2546002D06D051
:1044100000BFB1A2D5212846FFF75AFF00BF00BF59
:1044200021B030BD70B505460C46002C06D01520D5
:1044300000F0CCFA122000F0C9FA05E0152000F0D7
:10444000CAFA122000F0C7FA70BDF8B505460F464B
:10445000112D18D13946A84800F0E3FC0446002C81
:1044600010D0A64884420DD0082C0BD000BF2646A1
:10447000002E06D000BF98A2F3213046FFF728FF98
:1044800000BF00BF07E000BF93A2F8212846FFF756
:104490001FFF00BF00BF00BFF8BD38B598480090AF
:1044A0006946954800F083FC044600BF2546002D70
:1044B00007D000BF88A2FF2109312846FFF708FF77
:1044C00000BF00BF38BD1E208E4908800846807896
:1044D00040084000401C88700846807802218843CC
:1044E00088498870084680781C2188430C308549AB
:1044F0008870084680782021884382498870072088
:10450000C87010200871704770B5054628680028EB
:1045100011D13B217C48008876DF044600BF264647
:10452000002E07D000BF6CA2FF212C313046FFF7D0
:10453000CFFE00BF00BF70BD10B5044600BF66A22D
:10454000FF2137312046FFF7C3FE00BF10BD30B555
:1045500087B01C21684603F0FAFC0020009005207B
:1045600040040190801002900321684601730021ED
:10457000C18101746548059065480690684602F05F
:10458000C6FE044600BF2546002D07D000BF52A23C
:10459000FF214E312846FFF79BFE00BF00BF07B04A
:1045A00030BD704730B585B01421684603F0CFFCAC
:1045B0000021684601700020019068460172402188
:1045C0000182B421418273DF044600BF2546002DDD
:1045D00007D000BF40A2FF216A312846FFF778FECE
:1045E00000BF00BF152000F0F1F94AA2062100200B
:1045F00000F09FFD4AA20421002000F0E1FC05B07C
:1046000030BDF8B50546288814285BD006DC102894
:104610000BD0112828D0132855D13FE0172853D0AC
:10462000192852D05228F7D18AE0162000F0CEF98E
:10463000152000F0D0F93EA20421002000F0C0FCBB
:10464000A8883149088003F04CF9044600BF27468A
:10465000002F07D000BF20A2FF2184313846FFF78A
:1046600037FE00BF00BFE2E0162000F0B4F90020E2
:10467000C0432549088003F040F9044600BF27469F
:10468000002F07D000BF14A2FF218C313846FFF75E
:104690001FFE00BF00BFFFF785FFC8E0194A0021D9
:1046A000194800887FDF044600BF2746002F07D047
:1046B00000BF09A2FF2195313846FFF709FE00BF70
:1046C00000BFB4E056E0B1E04EE080E0EFBEADDE0A
:1046D000E1490100EC2500202E2E5C6D61696E2EF3
:1046E000630000004C6564427574746F6E44656DC0
:1046F0006F000000F8810100D0250020013000008B
:1047000025440100042000200A2000200945010062
:10471000394501002020202020202020000000001A
:104720006164766572746973696E672E2E2E00005F
:10473000636F6E6E65637465642120202020200005
:1047400000221146CB480088A9DF044600BF274657
:10475000002F07D000BFC84AFF219A313846FFF723
:10476000B7FD00BF00BF62E03222A91DC34803F0BD
:104770008FFB5CE0C14EB61D3188E889814212D1C1
:1047800000223146BB48008881DF044600BF27462F
:10479000002F07D000BFB84AFF21A6313846FFF7E7
:1047A00097FD00BF12E000221146B248008881DF69
:1047B000044600BF2746002F07D000BFAE4AFF21A6
:1047C000AC313846FFF784FD00BF00BF2FE0A87969
:1047D00000282AD1152000F0FEF8A9A2042100200B
:1047E00000F0EEFBAAA20621002000F0A2FC10209F
:1047F00003210091009A12048B001A4305231B0722
:1048000007273F02DB198700DA5100BF31DF04467A
:1048100000BF2746002F07D000BF974AFF21BE31B7
:104820003846FFF755FD00BF00BF00E000BF00BFE6
:10483000F8BD10B504462046FFF7E3FE204602F01F
:104840003AFE2146954800F08DF910BD10B504469A
:10485000204600F0B8FF10BD70B500BF0023502205
:104860008F49082002F0E1FE054600BF2E46002ECB
:1048700007D000BF804AFF21EE313046FFF728FD08
:1048800000BF00BF00BF874802F005FF044600BF1D
:104890002546002D07D000BF774AFF21F131284679
:1048A000FFF716FD00BF00BF7F4802F0FDFE044683
:1048B00000BF2546002D07D000BF6F4AFF21F5310C
:1048C0002846FFF705FD00BF00BF70BD70B500BFF3
:1048D000764A0A21082001F01FFE044600BF254643
:1048E000002D07D000BF644AFF21FD312846FFF7A5
:1048F000EFFC00BF00BF00BF70BD70B500BF6C49CA
:10490000012003F031F9044600BF2546002D07D0F1
:1049100000BF594A812189002846FFF7D9FC00BF12
:1049200000BF00BF70BD70B500BF624B624A02217C
:10493000624802F093FF044600BF2546002D07D0D1
:1049400000BF4D4A852189002846FFF7C1FC00BF02
:1049500000BF00BF70BD70B53DDF044600BF2546F7
:10496000002D06D000BF444A55492846FFF7B0FC49
:1049700000BF00BF70BDFFF7BEFC00F063FBFFF798
:10498000C8FCFFF7BAFFFFF7CEFFFFF765FFFFF7A1
:104990009DFFFFF7D7FCFFF780FDFFF710FDFFF746
:1049A000D6FDFFF790FDFFF7FCFDFFF7FBFD00BF15
:1049B00001F074FEFFF7CFFFFAE70121052212078D
:1049C00007231B02D2188300D15070470121814078
:1049D0003C4A91607047012181403A4AD16070475A
:1049E0007CB504460D4600940195374A0821684677
:1049F00001F0B3FD7CBD7CB504460D46164600941F
:104A0000684605714671314A082101F0A6FD7CBD5A
:104A1000F8B504460D46264600BF082D01D10120F9
:104A200000E000200746002F06D100BF28A2FF218A
:104A30001431FFF74DFC00BF00BF31687068884734
:104A4000F8BDF8B505460E462C4600BF082E01D12C
:104A5000012000E000200746002F05D100BF28A25A
:104A6000A821FFF735FC00BF00BF617920792268DB
:104A70009047F8BD0A200020D846010004280020F5
:104A80002020202020202020202020202020000066
:104A9000736C65657021212100000000D025002085
:104AA00038280020334801004D48010088280020A4
:104AB00038290020F7490100660600000C2000207C
:104AC0001D02000000050050114A0100434A010088
:104AD0002E2E5C2E2E5C2E2E5C2E2E5C2E2E5C49F5
:104AE0006E636C7564655C6170705F636F6D6D6F34
:104AF0006E5C6170705F74696D65722E6800000095
:104B00002E2E5C2E2E5C2E2E5C2E2E5C2E2E5C49C4
:104B10006E636C7564655C6170705F636F6D6D6F03
:104B20006E5C6170705F627574746F6E2E680000E9
:104B30008A88828270470022D2438282704770B591
:104B400004460E46B51D28886188884209D1288B05
:104B5000012806D1A069002803D0A97E2046A269B9
:104B6000904770BD70B505460C462088102804D0CB
:104B7000112807D050280FD109E021462846FFF719
:104B8000D7FF0AE021462846FFF7D5FF05E021467A
:104B90002846FFF7D4FF00E000BF00BF70BD30B56E
:104BA0008FB004460D461C2108A803F0D0F908A8D0
:104BB000007802218843811C08A801700078082130
:104BC0008843411808A80170002009900B900C90B0
:104BD0000D900E90A17C684681729D490181002054
:104BE000019000BF6846007901090901491C684627
:104BF00001710079F021884310306946087100BFC7
:104C000000BF6846407901090901491C68464171A5
:104C10004079F021884310306946487100BF6846EA
:104C2000807906218843811C68468171807908213A
:104C30008843014668468171807910218843014686
:104C40006846817180794108490068468171142164
:104C500003A803F07CF902A8039001A804900121A5
:104C6000684681820021C1820121018300200790D2
:104C70002088A31C03AA08A9A2DF0FB030BD30B55D
:104C80008FB004460D460020079000BF6846007FA5
:104C900001090901491C68460177007FF02188431A
:104CA00010306946087700BF00BF6846407F0109A1
:104CB0000901491C68464177407FF0218843103044
:104CC0006946487700BF6846807F06218843811C7B
:104CD000684681771C2108A803F039F908A80078F4
:104CE00002218843811C08A80170007810218843A4
:104CF000411808A80170002009900B900C9007A89B
:104D00000D9000200E90A17C684681715049491E8B
:104D100081800020009000BF6846007801090901E9
:104D2000491C684601700078F021884310306946BC
:104D3000087000BF00BF6846407801090901684655
:104D400041704078F02188436946487000BF68464A
:104D5000807806218843811C68468170807808210C
:104D60008843014668468170807810218843014657
:104D70006846817080784108490068468170142136
:104D800002A803F0E4F801A802906846039001210C
:104D90000182002141820121818200200690208829
:104DA00023460A3302AA08A9A2DF0FB030BD70B5AE
:104DB00086B004460E460020C043A0823068A06141
:104DC000244B0FCB01AD0FC52146123101A862DF84
:104DD0000546002D02D0284606B070BDA17C68466D
:104DE00081751B49891E8182224605A90120A0DF09
:104DF0000546002D01D02846EEE731462046FFF754
:104E00003EFF0546002D01D02846E5E73146204605
:104E1000FFF7C5FE0546002D01D02846DCE700203F
:104E2000DAE713B586B00446012101910020029013
:104E3000039004900590684681726189018107A8FA
:104E4000059001A80490A08A02A9A6DF08B010BDB1
:104E500025150000FC81010007E0E121C90000BF29
:104E60000A46491E002AFBD1401E0028F5D1704792
:104E700070B505460B2000F0F2F9002414E0284636
:104E8000A04080210840002803D00E2000F0E7F960
:104E900002E00E2000F0E8F90A2000F0E5F90A200F
:104EA00000F0DDF9601CC4B2082CE8DB70BD70B501
:104EB00005460B2000F0D8F9002414E02846A04055
:104EC00080210840002803D00E2000F0C8F902E03D
:104ED0000E2000F0C9F90A2000F0C6F90A2000F0FF
:104EE000BEF9601CC4B2082CE8DB70BD70B5044686
:104EF0000D462946B031C8B2FFF7D9FFF021214055
:104F0000091108461030FFF7D2FF2107090F0122CF
:104F100011430846FFF7CBFF70BD70B5064600246D
:104F200015E02146B031C8B2FFF7C1FF0120FFF7FD
:104F3000BEFF1020FFF7BBFF002504E03046FFF75F
:104F400097FF681CC5B2802DF8DB601CC4B2082C2A
:104F5000E7DB70BD70B5002415E02146B031C8B262
:104F6000FFF7A5FF0120FFF7A2FF1020FFF79FFF2B
:104F7000002504E00020FFF77BFF681CC5B2802DF0
:104F8000F8DB601CC4B2082CE7DB70BD10B50A204A
:104F900000F05CF90E2000F059F90D2000F056F9F0
:104FA0000B2000F053F90F2000F050F90C2000F016
:104FB0004DF90F2000F058F90C2000F050F910BD09
:104FC000FEB506460D4617460020019000240090CD
:104FD00033E00098385C2038C0B20190782E01DDB3
:104FE00000266D1CE9B23046FFF780FF002408E080
:104FF0000199090109199F4A505CFFF739FF601CAC
:10500000C4B2082CF4DB681CC1B23046FFF76EFF57
:10501000002409E00199090109190831954A505CF9
:10502000FFF726FF601CC4B2082CF3DB30460830C3
:10503000C6B20098401CC0B200900098385C0028AE
:10504000C7D1FEBD10B5FFF7A1FF3220FFF704FF67
:105050000A2000F004F90D2000F006F93220FFF7D5
:10506000FBFE0D2000F0FBF8AE20FFF720FF002034
:10507000FFF71DFF1020FFF71AFF4020FFF717FF73
:105080008120FFF714FFCF20FFF711FFA120FFF7CA
:105090000EFFC820FFF70BFFA620FFF708FFA82090
:1050A000FFF705FF3F20FFF702FFD320FFF7FFFECA
:1050B0000020FFF7FCFED520FFF7F9FE8020FFF768
:1050C000F6FED920FFF7F3FEF120FFF7F0FEDA201D
:1050D000FFF7EDFE1220FFF7EAFEDB20FFF7E7FE09
:1050E0004020FFF7E4FE2020FFF7E1FE0220FFF75B
:1050F000DEFE8D20FFF7DBFE1420FFF7D8FEA42094
:10510000FFF7D5FEA620FFF7D2FEAF20FFF7CFFEB8
:105110000020FFF702FF00210846FFF7E7FE56A236
:1051200002210020FFF74CFFFF20F530FFF794FE2F
:1051300010BDF7B582B00446154600200190002648
:10514000002720E0E85D2038C0B201907E2C04DD0D
:1051500000240398401CC0B2039020460399FFF737
:10516000C5FE002609E0062201995143464A8918E6
:10517000885DFFF77DFE701CC6B2062EF3DBA01D16
:10518000C4B2781CC7B2E85D0028DBD105B0F0BD21
:10519000F7B50E46174600247D0131460098FFF70B
:1051A000A5FE00BF06E03949485DFFF761FE6D1CB2
:1051B000601CC4B2102CF6DB701CC1B20098FFF763
:1051C00095FE002406E03149485DFFF751FE6D1C55
:1051D000601CC4B2102CF6DBFEBDFFB583B00646E2
:1051E0000F461C46002002902046E117490F09187F
:1051F000C910C900611A05D1E117490F09184905FD
:105200000D0E06E02046E117490F0918C910491C88
:10521000CDB23D4616E029463046FFF767FE0196BF
:105220000AE002994A1C02920C9A505CFFF720FE99
:105230000198401CC0B20190059901988842F0DBAA
:10524000681CC5B2A542E6DB07B0F0BD012105220E
:10525000120707231B02D2188300D1507047012187
:1052600081400B4A9160704701218140084AD1601A
:1052700070470000348401006E52463531383232B6
:1052800020424C45000000000C8201002420002038
:1052900000050050002314214143FC4A53541421BB
:1052A000414389184B8002231421414389188B60A4
:1052B0000023142141438918CB60142141438918EC
:1052C0000B611421414389188B80704710B5002071
:1052D000EF490880EF490860EC49091F08704870E1
:1052E0008870002403E02046FFF7D4FF641C1E2CC6
:1052F000F9D310BDFFB583B004460F46154603260B
:10530000E448006800280BD1002D06D1069800283B
:1053100003D10220DF49086002E00120DD49086076
:10532000DC480068030002F059FF07FD05314E8498
:10533000BAD7FD00D8484069401C002808D0012297
:105340001207126991B2D44A506902F039FE02E0A4
:10535000012000074069401E01210907096989B23F
:10536000484302900120000700690004820C0120DC
:105370000007006980B278430146029851DF064673
:10538000002E02D10220C3490860D0E0384650DF29
:105390000646002E16D1002D11D1069800280AD1FC
:1053A0002078042803D10720BA4908600AE00520C4
:1053B000B849086006E00420B649086002E003200E
:1053C000B4490860B3E0B4484069401C002808D0E4
:1053D00001221207126991B2AF4A506902F0F0FD42
:1053E00002E0012000074069401E01210907096908
:1053F00089B24843012109070290096989B27943BA
:1054000008462A46029951DF0646002E10D106981A
:1054100000280AD12078042803D106209D4908607D
:1054200006E005209B49086002E0042099490860D5
:105430007DE099484069401C002808D001221207ED
:10544000126991B2944A506902F0BAFD02E001205B
:1054500000074069401E01210907096989B24843D4
:10546000A9004018618840180121090702900969C4
:1054700089B27943AA00891862888818069A029925
:1054800051DF0646002E09D12078042803D10620DA
:105490008049086002E005207E49086047E001205D
:1054A0000007006980B27843AB00C01802906088A2
:1054B00082082169029851DF0646002E0BD1002D8B
:1054C00006D10698002803D107207249086002E03F
:1054D0000620704908602AE06F484069401C002897
:1054E00008D001221207126991B26B4A506902F08A
:1054F00067FD02E0012000074069401E0121090705
:10550000096989B24843019001200007006981B20E
:10551000019802F055FD029050DF0646002E04D19E
:10552000072000E002E05B49086000E000BF00BF28
:10553000304607B0F0BDF0B585B00F275348001FC7
:1055400000781421484351494418E568207802281E
:1055500004D0042823D005286FD16FE02069039080
:105560004B48008886026088801B0490039880194D
:105570000390A08880194519012189020498884266
:1055800006D2049882082846039951DF074605E0B1
:10559000FF2201322846039951DF074681E0A068C7
:1055A00000013E49401800890490A068000140189D
:1055B00040890390A068000140184068029002985A
:1055C000A84205D10399049848436188884202D0D3
:1055D000A06803280DD101200007006981B2284688
:1055E00002F0EEFC2A4909884618304650DF07468B
:1055F00022E001200007006981B2284602F0E0FCA9
:10560000064601200007006980B27043281A80080E
:10561000019001200007006980B2711C4843618835
:105620004919401A8008009031462046009B019A93
:10563000FFF760FE074600BF33E031E001200007BE
:10564000006981B2284602F0BBFC0646A0884119D9
:1056500001200007006980B27043081A8008049096
:10566000A08840196188421801200007006980B2B3
:10567000711C4843801A8008039031462046039BE2
:10568000049AFFF737FE07460BE000005029002080
:105690002C2500203025002000100010A82B002011
:1056A00000BF00BF002F02D10120FE49887038469C
:1056B00005B0F0BDFFB581B0064617460024F94895
:1056C00040781E2837D0F7480078F64949784018C6
:1056D000C4B21E2C02DB20461E38C4B21420604324
:1056E000F049091D0E54142060434018076114202E
:1056F00060434118029805C8CA608860142060435E
:10570000E84A121D801804994180142060438018D3
:105710000A9981800025101F8078002805D1FFF7A5
:105720000AFF0546112D00D10025DE484078401CB7
:10573000DC49487000E00425284605B0F0BDF8B506
:105740000446D848007814214843D649091D0E5C08
:10575000081F007814214843D249091D4018806869
:105760000001D1490D58CF48007814214843CD4954
:10577000091D40184088091F0090097814225143E0
:10578000C84A121D89180B69111F09781422514348
:10579000C44A121D89180846083022463146A847D7
:1057A000F8BD10B50024BF484078002809DDFFF798
:1057B000C2FE0446002C04D0112C02D02046FFF774
:1057C000BEFF204610BDFEB505460026B5488078D0
:1057D00001287DD10020B3498870B44800680828AA
:1057E00011D1022D03D10020B049086002E0002051
:1057F000AF490870FFF7D5FF0646002E02D03046AD
:10580000FFF79DFFFEBD022D02D0032D79D174E07C
:10581000A448007814214843A249091D4418A5480A
:105820000088401CA34908802078022807D1084638
:10583000008880026188884201DB012000E00020AE
:1058400007462078052805D198480068072801D127
:10585000012000E0002002902078042805D1934820
:105860000068072801D1012000E000200190207885
:1058700004280BD18F48008880026188884205DBAC
:105880008A480068002801D1012000E00020009033
:105890000298002807D10198002804D10098002818
:1058A00001D1002F1FD00020804908603046FFF74B
:1058B00046FF7C490878FFF7EDFC00207D49088011
:1058C00078484078401E774948700846007800E0E4
:1058D0001AE0401C0870084600781E2803DB0846C2
:1058E00000781E380870FFF75CFF0646002E02D0D5
:1058F0003046FFF724FF05E003E00D20FFF71FFF10
:1059000000E000BF00BF00BF00BF7BE770B5FFF73E
:10591000DDFC00206849088068484069401C002878
:1059200008D001221207126991B2644A506902F04C
:1059300047FB02E0012000074069C01E0121090762
:10594000096989B248435E490860002059490880C6
:1059500000BF0DE000210201534B99500201D21803
:1059600011810201D21891810201D2185181401C8B
:105970000228EFD308204D49086050484069401C78
:10598000002808D001221207126991B24B4A5069CF
:1059900002F016FB02E0012000074069401E0121D1
:1059A0000907096989B248430646012000070069D2
:1059B00081B2304602F004FB054650DF0446002C5D
:1059C00004D101203749887039490870204670BDDC
:1059D000F8B504460D4600BF35480078002801D1CF
:1059E0000820F8BD00BF002C01D10E20F9E7002DE2
:1059F00001D10E20F5E72068002801D10E20F0E744
:105A0000A08801210907096989B2884202DCA088BF
:105A1000102801DA0720E4E7E08800281ED0274894
:105A20004069401C002808D001221207126991B277
:105A3000224A506902F0C4FA02E0012000074069DE
:105A4000401E01210907096989B24843E188A288FB
:105A500051431B4A12688918884201D20720C0E7C7
:105A600020798007800F002801D00720B9E712486D
:105A70000088022801D10420B3E70F48008828607D
:105A80000F48006868600C4909880901064A8918AE
:105A90006868486008490988090120685050A08852
:105AA00005490FE04C290020A82B002030250020BC
:105AB0002E2500202C250020242500200010001079
:105AC000282500200988090189180881E088F849FB
:105AD00009880901891848810027A688E1884E4372
:105AE00000BF781C87B201200007006980B2B04275
:105AF00005D201200007006980B2361A00E00026B6
:105B000001200007006980B2EA4909684018E949A4
:105B1000086001200007006980B2B042E1D9E44882
:105B200000880001E44940188781E1480088401C52
:105B3000DF490880002054E73CB5034600BFDF483A
:105B40000078002801D108203CBD00BF002B01D106
:105B50000E20F9E7002A01D10E20F5E71868022887
:105B600005D218680001D44C2058002801D1072024
:105B7000EAE75C68186801940090019C18680001CD
:105B8000CD4D40190089484320180190009800012C
:105B90002C4600194089009C240164192489604323
:105BA000009C2401641964680019019CA04201D87A
:105BB0000720C9E7019C0098546010600020C3E7EB
:105BC000F8B504460E4615461F4600BFBB48007890
:105BD000002801D10820F8BD00BF002E01D10E2001
:105BE000F9E7002C01D10E20F5E72068022805D244
:105BF00020680001B0490858002801D10720EAE7D1
:105C000020680001AC494018408921680901AA4A6E
:105C10008918098948432168090189184968401889
:105C20006168884201D80720D5E7002D06D020689A
:105C30000001A14940180089A84201DA0720CAE7FB
:105C4000E819216809019C4A89180989884201DDFF
:105C50000720C0E7304600F050F9002804D038464D
:105C600000F04BF9002801D11020B4E7606800F083
:105C700044F9002801D11020ADE72B4632462146D9
:105C800002200097FFF716FDA5E7F8B504460E467B
:105C900015461F4600BF89480078002801D108201A
:105CA000F8BD00BF002E01D10E20F9E7002C01D174
:105CB0000E20F5E72068022805D2206800017E4901
:105CC0000858002801D10720EAE7206800017A4936
:105CD0004018408921680901774A89180989484391
:105CE000216809018918496840186168884201D80B
:105CF0000720D5E7002D06D0206800016E49401826
:105D00000089A84201DA0720CAE7E81921680901D9
:105D1000694A89180989884201DD0720C0E73046B1
:105D200000F0EBF8002804D0384600F0E6F8002830
:105D300001D11020B4E7606800F0DFF8002801D13D
:105D40001020ADE72B463246214605200097FFF78D
:105D5000B1FCA5E7F8B507460C4615461E4600BF40
:105D600056480078002801D10820F8BD00BF002C5B
:105D700001D10E20F9E7002F01D10E20F5E72068B0
:105D8000022805D2206800014B490858002801D19B
:105D90000720EAE720680001474940184089216848
:105DA0000901454A89180989484321680901891868
:105DB000496840186168884201D80720D5E7002D5E
:105DC00006D0206800013C4940180089A84201DA49
:105DD0000720CAE7A81921680901374A89180989E3
:105DE000884201DD0720C0E7384600F086F8002829
:105DF00004D0304600F081F8002801D11020B4E72B
:105E0000606800F07AF8002801D11020ADE76068E2
:105E100081192A46384602F03BF80020A5E7F8B57C
:105E200004460D4600BF25480078002801D108200F
:105E3000F8BD00BF002C01D10E20F9E72068022830
:105E400005D2206800011C490858002801D107200C
:105E5000EEE72068000118494018408921680901CF
:105E6000154A891809894843216809018918496830
:105E700040186168884201D80720D9E7606800F0BF
:105E80003CF8002801D11020D2E723681B010A4FFB
:105E9000DB1962685B68D01A226812013B46D2188F
:105EA000118902F08DF800290AD00720C0E7000010
:105EB0002425002028250020A82B00202E250020A6
:105EC00000202B460246214600900420FFF7F2FBFB
:105ED00006463046ACE7014600BF0C480078002873
:105EE00001D10820704700BF002901D10E20F9E739
:105EF0000748407808600020F4E701468807800FD3
:105F0000002801D1012070470020FCE72E25002049
:105F10004C290020F7B584B004460F460698067851
:105F2000B01C1F2803DC2079801C1F2802DD0C20F8
:105F300007B0F0BD1F20801B801E85B20295B11CEA
:105F4000781802A97DDF03900398002801D00398F8
:105F5000EEE72068022808D168460089A84204DCE0
:105F600009200190684605890BE0082001902079FE
:105F7000002804D02079A84201DC257901E0684698
:105F80000589681CC2B23046711CCEB23A54304604
:105F9000721CD6B20199395406980178A81C0818C9
:105FA000C1B2069801700020C2E7F8B505460C465C
:105FB0002078001D1F2801DD0C20F8BD684679DF20
:105FC0000646002E01D03046F7E703212278501C08
:105FD0002070A95419212278501C2070A9542078CF
:105FE00041196846008800F08BFA2178401820702B
:105FF0000020E2E7F8B505460F4616461C466868DD
:10600000002801D10720F8BD2078801C298840187D
:106010001F2801DD0C20F6E72878401CC1B2227849
:10602000501C2070B1542178481C207077542A8865
:1060300023789819696801F02BFF20782978401897
:1060400020700020DFE730B503461078C01C1F2801
:1060500001DD0C2030BD02241578681C10704C55F1
:106060000A241578681C10704C551578681C10703F
:106070004B550020EEE7FFB587B006461D46109C45
:106080000020069020780590002747E0B90070684E
:1060900041180A886846028149884181002203A983
:1060A00002A864DF04900498002802D004980BB082
:1060B000F0BD6846017B099881422ED106980028E0
:1060C00001D0002000E00220019020786946097B81
:1060D0004118019808181F2801DD0C20E7E70698F1
:1060E000002809D12078401C20702278511C089883
:1060F0002170A854012006902078421903A902A813
:1061000064DF04900498002801D00498CFE7207839
:106110006946097B4018207000BF7F1C3088B84258
:10612000B4DC0698002806D021780598401C081A8F
:10613000C1B2059829540020B9E7FFB581B00746E0
:1061400015460A9E009602223846049B0299FFF7E4
:1061500092FF0446002C02D0204605B0F0BD009608
:10616000102229463846049BFFF785FF0446002C81
:1061700001D02046F1E70020EFE701460888062815
:1061800008DB08881922D201904205DD0888E14A1F
:10619000904201D0072070474888062808DB4888CD
:1061A0001922D201904205DD4888DA4A904201D096
:1061B0000720F0E70888D74A904208D048889042E4
:1061C00005D008884A88904201DD0720E3E70020D7
:1061D000E1E7F8B506460D4614462078801D1F28D5
:1061E00001D90C20F8BD3046FFF7C7FF0746002F46
:1061F00001D03846F6E705212278501C2070A954BA
:1062000012212278501C2070A9542278511930880C
:1062100000F076F9217840182070227851197088A2
:1062200000F06EF92178401820700020DAE7F8B508
:1062300005460E4614462879801CC7B22078801C7B
:10624000C0191F2801DD0C20F8BD781CC1B22278CE
:10625000501C2070B154FF212278501C2070B15482
:1062600022789119288800F04BF921784018207085
:10627000A88800280EDDA868002801D10720E3E7E0
:10628000AA8823789819A96801F002FE2078297954
:10629000401820700020D7E7FEB507460E4614468A
:1062A000786B002801D10720FEBD0020019032E06C
:1062B000796B0C22019850430D182879801CC0B2CC
:1062C00000900098401CC1B22278501C2070B1543C
:1062D00016212278501C2070B154227891192888F8
:1062E00000F00EF9217840182070A88800280EDDF3
:1062F000A868002801D10720D6E7AA882378981932
:10630000A96801F0C5FD207829794018207001980E
:10631000401CC0B201903820C15D01988142C7DCA9
:106320000020C1E7F8B504460F46164600250020B8
:1063300030702068002809D0324639462046FFF7E1
:10634000E9FD0546002D01D02846F8BD60790028FA
:1063500008D031463846FFF728FE0546002D01D00B
:106360002846F2E7208900280BDD33463A46012112
:1063700020460830FFF73EFE0546002D01D0284696
:10638000E3E7206900280BD0002021690856324637
:106390003946FFF758FE0546002D01D02846D4E7C0
:1063A000A08A00280CDD3B4606220221204614303C
:1063B0000096FFF7C2FE0546002D01D02846C4E72F
:1063C000A08B00280CDD3B460722032120461C3011
:1063D0000096FFF7B2FE0546002D01D02846B4E72F
:1063E000A08C00280CDD3B461522142120462430C9
:1063F0000096FFF7A2FE0546002D01D02846A4E72F
:10640000E06A002809D032463946E06AFFF7E1FE2B
:106410000546002D01D0284697E7206B002809D0BB
:1064200032463946206BFFF702FF0546002D01D0AA
:1064300028468AE73820005D002809DD32463946C3
:106440002046FFF729FF0546002D01D028467CE7AE
:1064500028467AE701460889002808D0C86800283D
:1064600005D0C868007804221040002801D1072018
:1064700070470020FCE701460889002801DD07205D
:1064800070470020FCE7F3B593B00D460021129150
:1064900011911398002814D01398FFF7DBFF0446DE
:1064A000002C02D0204615B0F0BD12AA09A91398FD
:1064B000FFF738FF0446002C01D02046F3E709AE71
:1064C00000E00026002D13D02846FFF7D4FF044635
:1064D000002C01D02046E6E711AA01A92846FFF7C3
:1064E00021FF0446002C01D02046DCE701AF00E08C
:1064F000002710A803793A46017A304672DFD2E7C6
:1065000002460A70FF20000210400012487002206C
:1065100070470000FFFF000030B50346481CC00470
:10652000040C10468507AD0F002D01D1012500E0B8
:106530000025002D01D1072030BD7A4802601019D6
:10654000794D28600020794D2870794D2870794860
:106550000380794801800020EEE7F7B584B00C464F
:106560007448008884426BDC744D0020039000F076
:10657000A4F802900298012814D003A82BDF074644
:10658000022F01D172B60CE000BF0197019F002FCE
:1065900006D000BF6AA259210198FDF799FE00BFFD
:1065A00000BF00BF6148007800F0B1F86049097889
:1065B000884206D05D480578007800F0A8F85B496D
:1065C00008700298012814D062B66846007B2CDF60
:1065D0000746022F0CD000BF0197019F002F06D065
:1065E00000BF57A261210198FDF772FE00BF00BFF6
:1065F00000BF5248854221D0E9004A4A06981268F5
:1066000050500498002811D0002C0FDD494909880A
:106610006943454A126888182246049901F038FCFB
:10662000E800404909684018848005E00020E9003E
:106630003C4A126889188880002600E0042600E0A1
:106640000926304607B0F0BDF8B505460E46174698
:1066500005200090354800783549097888421BD0DC
:1066600033480478007800F052F831490870314816
:10667000008860432C49096840182860E0002949D7
:106680000968401880883080E00026490968085869
:1066900038600020009000BF0098F8BD0EB504E0FF
:1066A00068468188009A029890476A4601A902A824
:1066B000FFF7CAFF0028F3D00EBD10B52D48406883
:1066C000C105C90D002920D00A46103A10460028FD
:1066D0000DDA284B1C330407240F083CA408A4003F
:1066E0001B598407E40EE3401B069B0F0BE0224B73
:1066F000032424021B198408A4001B598407E40EF8
:10670000E3401B069B0FD8B210BD0420FCE70146F6
:1067100009480088814201DA481C00E00020C0B22C
:106720007047000034250020382500203D2500203A
:106730003C2500203E25002040250020FFFF0000D2
:106740002E2E5C2E2E5C2E2E5C2E2E5C2E2E5C535E
:106750006F757263655C6170705F636F6D6D6F6E96
:106760005C6170705F7363686564756C65722E63DD
:106770000000000000ED00E000E100E010B500289E
:1067800019DAFA4A03071B0F083B9B089B00D258F3
:106790008307DC0EFF23A3409A438B071B0E84075D
:1067A000E40EA3401A43F14B0407240F083CA4084D
:1067B000A4001A5118E0EE4A03231B02D2188308E2
:1067C0009B00D2588307DC0EFF23A3409A438B071C
:1067D0001B0E8407E40EA3401A43E54B0324240256
:1067E0001B198408A4001A5110BD10B50446E148D5
:1067F000846003211120FFF7C1FF10BD10B50120F7
:106800000004DD494860DC4940394860112000F04F
:10681000DDFC112000F0CCFC0120D84908602F20BD
:10682000FDF792FC10BD10B5112001218140D04A26
:106830008032116000BF01200004CF498860CE493A
:10684000403988600120CD4948602F20FDF77CFC4D
:1068500010BDF0B5024628205043C94B1B68C11833
:10686000C8480068401C002802D1C648026059E0B0
:10687000C4488B68006828246043C14C2468001910
:106880008068834217D8BF48006828235843BC4B10
:106890001B68C01880688B68C31ABA48006828242F
:1068A0006043B74C246800198360B64800684862AA
:1068B000B448026036E08B68B24D2C6828680DE061
:1068C00028254543AE4E3668AD19AD685B1B0446BE
:1068D00028254543AA4E3668AD19686A451C002D27
:1068E00007D028254543A64E3668AD19AD689D42B0
:1068F000E6D3451C002D0CD028254543A04E366814
:10690000AD19AD68EE1A282545439D4F3F68ED1936
:10691000AE608B60486228256543994E3668AD1994
:106920006A6200BFF0BD70B50246964C2168084609
:1069300009E0904200D109E0014628244443904DEB
:106940002D686419606A441C002CF2D100BF441CFD
:10695000002C00D170BD814209D18A4C24682825C1
:106960006C43874D2D686419646A864D2C60282419
:106970004443834D2D686419A36828244443804D03
:106980002D686419656A28244C437D4E3668A41925
:10699000656228244C437A4D2D686419606A441C52
:1069A000002C0CD028244443754D2D686419A4682C
:1069B000E51828244443724E3668A419A56000BF28
:1069C000C8E710B5112000F0FAFB10BD10B5142077
:1069D00000F0F5FB10BD70B504466B480068002858
:1069E00013D0694A216AE06912689047054600BFE2
:1069F0002E46002E07D000BF64A2FF21553130463D
:106A0000FDF766FC00BF00BF02E0E169206A88472D
:106A100070BDF8B55B480068401C00283AD00027DC
:106A200000F006FC044665480168204600F003FCBF
:106A300006465448056811E0282068435049096813
:106A40004418A068B04200D90BE0A068361AA068CC
:106A5000C719656A2046FFF7BEFF00BF681C002803
:106A6000EAD100BF5648007856490978884209D1D2
:106A700054480078401CC0B252490870022801D125
:106A8000002008704F48007880004F490F50FFF7F2
:106A90009DFF00BFF8BD014649480078494A127879
:106AA00090421DD046480078401C454A1070104660
:106AB0000078022801D10020107041480078800041
:106AC000414A105808603D4A0868126880183B4ADD
:106AD0001060104600680002000A10600120704734
:106AE0000020086000BFFAE7FEB526480068019064
:106AF00036480078009074E00098C0003449096876
:106B00004418257869E01820684361680F18681CEC
:106B1000C5B2A078A84200D100253868022802D06A
:106B2000032857D10EE028217868484314490968A2
:106B30004618307E002804D07868FFF7F4FE002065
:106B4000307648E00CE00F490968282251430C4A8E
:106B500012688818002101760A4A416A116000BF54
:106B600008480068401C0028EDD134E01CED00E02E
:106B700000E100E000150140401301400010014019
:106B80004825002054250020682500202E2E5C2E4C
:106B90002E5C2E2E5C2E2E5C2E2E5C536F75726337
:106BA000655C6170705F636F6D6D6F6E5C6170705E
:106BB0005F74696D65722E63000000005825002027
:106BC00064250020652500205C2500204C25002040
:106BD0005025002000BF00BF00BF6078A84292D1BE
:106BE00000BF0098411EC9B20091002884D1FE4820
:106BF00001680198814201D00120FEBD0020FCE720
:106C0000F0B50346002426E0F74E366828277E4379
:106C1000F64F3F68F01986689E4203D98668F61AD7
:106C200086601DE086689B1B866834190026866096
:106C30000676ED4E3568EC4F466A3E604669002E9A
:106C400008D00E193602360AC66046690661166813
:106C50004662156000BFE4480068401C0028D3D19C
:106C600000BFF0BDFEB50746DF4800680290E0486F
:106C7000007801906BE00198C000DE490968451872
:106C80005DE0781C002807D03E4628207043D74995
:106C900009684418676A23E02978182359436A6809
:106CA00050182978491C29702978AA78914201D175
:106CB00000212970466828217143CC4A12688C183B
:106CC0000168012902D1217E002900D037E08168C6
:106CD000E160C1682161016961614169216200BFB0
:106CE000C549E0680968401A0002000AC3498842A1
:106CF00008D2C149E068096800F09DFA216940188E
:106D0000A06011E0BC48E168006800F094FA0090CF
:106D100021690098814204D921690098081AA0606D
:106D200001E00020A06000BF0020E06020610120A1
:106D30002076801E60623046FFF78BFD00BF781C16
:106D400000289ED12878697888429AD100BF01989E
:106D5000411EC9B2019100288DD1A3480168029853
:106D6000814201D00120FEBD0020FCE7FEB50546B2
:106D70009D480068401C002835D09B4800682821A9
:106D800048439A4909684018866800F051FA029011
:106D9000994804682146029800F04DFAC01C019001
:106DA000681C002801D1FFF729FD0198B04201D2EB
:106DB000304600E0019804192402240A2046904934
:106DC000086000BF00F034FA00900299009800F0CB
:106DD00032FAC71C2046029900F02DFA874201D9E9
:106DE000FFF7EFFD01E0FFF71EFDFEBDFEB5002041
:106DF000C0430190804804687B4807686846FFF7F5
:106E00004AFE0546FFF770FE0646002D05D001AA92
:106E100021460098FFF7F4FE01260198FFF722FFB4
:106E2000002800D00126002E02D03846FFF79EFF32
:106E3000FEBD4170704770B502460B465078411C4C
:106E40009078884200D100211078884201D100203A
:106E500070BD196050781826704355682C1820466C
:106E6000F6E7FFB581B005460E461746E900614AD0
:106E7000126888186946FFF7DEFF0446002C02D12D
:106E8000042005B0F0BD01202060666000F0D0F95C
:106E9000A060E760049820610A986061E900554AA3
:106EA000126888180099FFF7C4FFFFF78FFD0020D4
:106EB000E7E7F8B504460E46E1004E4A1268881826
:106EC0006946FFF7B8FF0546002D01D10420F8BD43
:106ED000022028606E60E100464A12688818009916
:106EE000FFF7A7FFFFF772FD0020F0E738B5044673
:106EF000E100404A126888186946FFF79CFF054682
:106F0000002D01D1042038BD03202860001F6860D7
:106F1000E100384A126888180099FFF78AFFFFF7E6
:106F200055FD0020EFE710B500203649086000212C
:106F3000344841608160C1600020324940390860B6
:106F40004860FFF766FD10BD10B5FFF74FFF10BD9D
:106F5000FFB581B00E4617461C4620468107890FB3
:106F6000002901D1012100E00021002902D10720E0
:106F700005B0F0BD002C01D10720F9E7FFF753FC65
:106F800021490A98086021480670184804600025C5
:106F90000CE0002128206843144A12681150282070
:106FA0006843124A1268801801766D1CB542F0DB06
:106FB00028207043041903200D4908700D4804600F
:106FC000183400250CE0E9000A4A126888180021EC
:106FD0000170417087704460182179430C196D1C51
:106FE000032DF0DB002013E054250020482500206D
:106FF0004C2500205025002058250020FFFF7F0051
:107000004015014040110140682500204425002022
:10701000C0438B49086000208A4908708A4908707B
:10702000142000F0D3F803211420FFF7A7FB14204D
:1070300000F0BEF80198FFF7D8FB00F0F9F883499B
:107040000860002094E770B503460C46804800684D
:10705000002801D1082070BD002A01D10720FAE7DD
:10706000002B01D10720F6E700211CE0282048432F
:10707000774D2D682858002814D101252820484331
:10708000734E3668355028204843714D2D6840199D
:107090004460282048436E4D2D684019C261196034
:1070A0000020D8E7491C6B4800788142DEDB0420D1
:1070B000D1E710B500F092F8012802D0032804D1DE
:1070C00001E0002403E0012401E0022400BF00BF2E
:1070D000204610BDFEB504460D4616465C480068C5
:1070E000002801D10820FEBD5A480078844201D210
:1070F000052D01D20720F6E728206043544909688E
:107100000858012801D00820EDE7282060435049A5
:10711000096840184068012801D1284600E0002095
:107120000746FFF7C6FF3B462A46214600960190D8
:10713000FFF797FED7E770B504464548006800287A
:1071400001D1082070BD43480078844201D3072054
:10715000F8E7282060433E4909680858012801D013
:107160000820EFE7FFF7A5FF05462146FFF7A1FE40
:10717000E8E710B536480068002801D1082010BDA6
:10718000FFF797FF0446FFF7B1FEF8E710B5044696
:1071900000F04EF82060002010BD70B505460E4688
:1071A00014463146284600F046F82060002070BDA5
:1071B000C206D20E01219140274A11607047C206D3
:1071C000D20E01219140254A11607047C206D20EAD
:1071D00001219140214A80321160704710B520484A
:1071E0004068C105C90D002920D00A46103A104652
:1071F00000280DDA1A4B1C330407240F083CA4089E
:10720000A4001B598407E40EE3401B069B0F0BE010
:10721000114B032424021B198408A4001B59840762
:10722000E40EE3401B069B0FD8B210BD0420FCE720
:107230000C48406870470246501A0002000A704726
:1072400054250020642500206525002058250020B5
:10725000482500204425002000E100E000E200E095
:1072600000ED00E00015014001464888B74A128849
:10727000904206DB4888B54A5288904201DC0120E2
:1072800070470020FCE738B50546B1480088B14991
:1072900088423BD0B0480078401CAF490870AF48E6
:1072A000007B097888420FDBA849A948008875DF70
:1072B0000446002C07D0A9488069002803D0A748BD
:1072C00081692046884721E00020A3490870A3482F
:1072D000007C00280FD03B219D48008876DF0446C3
:1072E000002C07D09D488069002803D09B48816905
:1072F0002046884700BF99484069002806D00020F2
:107300000090964841696846884700BF38BD70B50F
:1073100005461C2229469148FCF726FF002090498B
:107320000870286800280BD008228848296800F0D7
:10733000AFFD86487ADF0446002C08D0204670BD99
:1073400082487BDF0446002C01D02046F7E700206E
:10735000C0437F49088000207F490870814A00218E
:107360008148FFF770FEEAE710B57F480068FFF735
:10737000E2FE10BD38B57D48FFF776FF002829D121
:107380007748007800280AD074484069002820D047
:1073900000200090714841696846884719E06E48AE
:1073A0000078002802D16D48456801E06B48856887
:1073B000002229466C480068FFF78CFE0446002C2A
:1073C00007D066488069002803D064488169204658
:1073D00088470AE061484069002806D001200090F3
:1073E0005E4841696846884700BF00205C490870D4
:1073F00038BD10B50446A0885549088008222146AA
:107400000E315A4800F044FD00205349087053489B
:10741000C089002801D1FFF7ADFF10BD70B505464A
:107420000020C0434A49088000204B4908704E485C
:107430000068FFF780FE0446002C07D047488069AB
:10744000002803D0454881692046884770BD70B543
:107450000546AC1D20884149C989884220D1208B2E
:1074600002281DD100BF00BFA17EE27E120211439F
:107470000846C107C90F002902D0FFF77BFF0FE0C4
:1074800039480068FFF757FE0646002E07D03348FC
:107490008069002803D0314881693046884700BFA1
:1074A00070BD10B504460822A11D304800F0F0FC64
:1074B000FFF760FF10BD10B504462088102806D0E5
:1074C000112808D012280ED0502810D107E02046ED
:1074D000FFF78FFF0CE02046FFF7A0FF08E02046F3
:1074E000FFF7B5FF04E02046FFF7DBFF00E000BF39
:1074F00000BF10BD38B5044608222146134800F0ED
:10750000C7FC12487ADF0546002D1CD11748FFF74B
:10751000ABFE00280BD10120114908700B490C4823
:10752000008875DF054601200B4908700BE00B4809
:107530004069002806D0012000900848416968464B
:10754000884700BF0025284638BD00006C25002074
:1075500076250020FFFF000074250020C82B0020A6
:1075600084250020877201008025002078250020D6
:1075700070B506460C46154629462046FCF7B2FE75
:1075800070BDF8B55A480078002800D1F8BD5948B8
:107590000068002801D1012000E00020054656487F
:1075A0000068002801D1012000E00020064600BF4D
:1075B000002D14D168464EDF0446052C01D101256B
:1075C0000CE0002C06D000BF4CA269212046FCF73D
:1075D0007FFE03E0474900980968884700BF002EF6
:1075E0001AD154480088009069465348006860DF0B
:1075F0000446052C01D101260DE0002C06D000BF69
:107600003EA280212046FCF763FE04E04A48006861
:1076100039490968884700BF002D02D0002E00D0EC
:1076200000E0C5E700BF00BFB0E7FFB581B00C4682
:1076300016461F46002C02D1072005B0F0BD20469B
:107640008107890F002901D1012100E000210029D3
:1076500001D10720F1E738480460364806803748F2
:1076600007603749019810DF0546002D01D02846F4
:10767000E3E701201E490870162023DFDDE710B57F
:1076800011DF0446002C01D0012000E00020184941
:107690000870204610BD0146002901D10E20704718
:1076A000154801600020FAE70146002901D10E20AB
:1076B0007047104801600020FAE770B51F48006865
:1076C000002811D01D4800688047044600BF2546A9
:1076D000002D07D000BF09A2FF2133312846FCF757
:1076E000F7FD00BF00BF01E0FFF74BFF70BD0000DA
:1076F0009225002098250020942500202E2E5C2E17
:107700002E5C2E2E5C2E2E5C2E2E5C536F757263BB
:10771000655C73645F636F6D6D6F6E5C736F6674D1
:107720006465766963655F68616E646C65722E631B
:1077300000000000902500208C25002088250020D6
:1077400071750100F8B504460D469248006800289E
:1077500013D0EAB221788F4BA0681B689847064681
:1077600000BF3746002F06D000BF8BA22821384625
:10777000FCF7AEFD00BF00BF0CE0012D04D1207866
:107780000121A268904705E0002D03D12078002157
:10779000A2689047F8BDF8B5074669468A48007860
:1077A00000F0F3FA0646002E00D0F8BD002535E0C3
:1077B0000C20684385490968441885480068227888
:1077C00001219140084000280FD0A06800280CD06B
:1077D0006078012804D100212046FFF7B3FF1BE0A9
:1077E00001212046FFF7AEFF16E079484068227875
:1077F00001219140084000280ED0A06800280BD03D
:107800006078012804D101212046FFF79BFF03E0A7
:1078100000212046FFF796FF681CC5B26D4800782E
:107820008542C5DB00BFC0E770B504460D466A4817
:107830000068FFF780FC0646002E00D070BD64484B
:107840004460056020462843024664480168624857
:107850000068FFF73FFC064600BFEFE7FFB583B0C7
:1078600006460C461746052F02D2072007B0F0BD8A
:1078700056480660574804705848076045490698BE
:107880000860002516E00C216143881902780092F7
:1078900041680191019989000522120707231B0203
:1078A000D318009A9200995000BF027801219140AC
:1078B0000D4300BF2046611ECCB20028E3D1484BE7
:1078C0002A462946404800F089F90290029800288B
:1078D00001D00298CAE7434A00213F48FFF7B3FBB3
:1078E000C4E710B539480068002801D1082010BD50
:1078F0003548007800F0B7F9F9E710B5334800686B
:10790000002801D1082010BD2F48007800F01CFA93
:107910000446002C01D02046F5E72F480068FFF709
:107920000AFCF0E7F8B505460C460C2068432749E9
:107930000968471825480068002801D10820F8BDCB
:1079400069462148007800F020FA0646002E01D052
:107950003046F4E7787800280BD10098E840C0075B
:10796000C00F002802D00020207010E001202070FD
:107970000DE0787801280AD10098E840C007C00FD0
:10798000002802D00120207001E00020207000209B
:10799000D5E70000A82500202E2E5C2E2E5C2E2E72
:1079A0005C2E2E5C2E2E5C536F757263655C61706D
:1079B000705F636F6D6D6F6E5C6170705F62757428
:1079C000746F6E2E63000000AC2500209C25002003
:1079D000B4250020A0250020B0250020A4250020EB
:1079E0002978010097770100F0B502460C46002087
:1079F00037E001238340194623460B40002B2FD04C
:107A0000D5680D40002D05D101235B04D5680D43D9
:107A1000D56004E003231B04D5688D43D56005259C
:107A20002D0707263602AD198600AD590326360408
:107A3000B5430526360707273F02F6198700F5519B
:107A400005252D0707263602AD198600AD591D43C1
:107A50000526360707273F02F6198700F55100BFB4
:107A6000401C2028C5D3F0BDF0B585B0EF480569AE
:107A70000020EF49C86300263FE014207043ED4921
:107A8000096844180120B040EB4909680840002803
:107A900031D0E068C0436840216808400746394655
:107AA0002046FFF7A1FFE148006968400390039872
:107AB00000280ED003980543E068C0436840216861
:107AC0000840009020460099FFF78EFF009807437A
:107AD00000BFA068A8433840019060682840384043
:107AE0000290019902980843002803D02269019965
:107AF0000298904700BF701CC6B2D04800788642FA
:107B0000BBDB05B0F0BD10B50146002029E0142212
:107B10004A43C84B1B689A58012383401A40002AE5
:107B20001ED00522120707231B02D2188300D25849
:107B300003231B049A4305231B07072424021B1954
:107B400084001A510522120707231B02D218830052
:107B5000D25805231B07072424021B1984001A513D
:107B6000401C2028D3D310BD70B505460C46002C10
:107B700001D1072070BD20468107890F002901D15E
:107B8000012100E00021002901D10720F2E7A948E6
:107B90000460AB4805700020A8490870A649086039
:107BA000A7480078142250430146A248006800F01C
:107BB000CEF90020C043A3498860062001218140FE
:107BC000A14A116000BF012100F0F9F8062001214F
:107BD00081409E4A116000BF0020CBE7F8B5044603
:107BE0000D4616461F4693480068002801D108201C
:107BF000F8BD002F01D10720FAE79048007890499E
:107C00000978884201DB0420F2E7284630438B499B
:107C1000097814225143874A1268505087480078E7
:107C20001421484383490968401845608348007817
:107C3000142148437F490968401886607F480078CE
:107C4000142148437B490968401807617B48007844
:107C500020707A480078401C784908702078FFF737
:107C600052FF0020C4E7F0B50246724800680028C1
:107C700001D10820F0BD71480078824201DB072065
:107C8000F8E700206A4BD863684804696A480068CE
:107C9000002802D158066B4B586001209040664B7B
:107CA0001B681843644B1860002314205043614D37
:107CB0002D684019C360002142E001238B40184623
:107CC000142353435B4D2D68EB580340002B36D0F3
:107CD00025460540002D02D003231B040EE001239E
:107CE0005B0414255543534E3668AD19ED680543C2
:107CF000142656434F4F3F68F619F56005252D07AA
:107D000007263602AD198E00AD5903263604B54359
:107D10000526360707273F02F6198F00F55105257E
:107D20002D0707263602AD198E00AD591D430526D5
:107D3000360707273F02F6198F00F55100BF491C8F
:107D40002029BAD3002095E710B5044639480068C9
:107D5000002801D1082010BD38480078844201DB9A
:107D60000720F8E72046FFF7CEFE0120A040324969
:107D700009688143304801600068002803D1012070
:107D8000C007304988600020E5E710B50246294861
:107D90000068002801D1082010BD284800788242E0
:107DA00001DB0720F8E714205043224C2468031914
:107DB0001E4800691C68204008600020ECE710B5F0
:107DC000002819DA224A03071B0F083B9B089B0077
:107DD000D2588307DC0EFF23A3409A438B071B0E68
:107DE0008407E40EA3401A43194B0407240F083CF0
:107DF000A408A4001A5118E0144A03231B02D21845
:107E000083089B00D2588307DC0EFF23A3409A43CC
:107E10008B071B0E8407E40EA3401A430B4B03246D
:107E200024021B198408A4001A5110BD000500503B
:107E300040610040C4250020BC250020C125002051
:107E4000C02500200063004080E200E000E100E087
:107E50001CED00E004460D4616467F2231460948D7
:107E600000F078F8002107486030C17706490D809E
:107E700006480460084600880448006872B600BFDF
:107E8000FEE70000E42B0020C8250020CC250020C0
:107E9000F8B5042A2CD3830712D00B78491C037041
:107EA000401C521E83070BD00B78491C0370401CEA
:107EB000521E830704D00B78491C0370401C521ECD
:107EC0008B079B0F05D0C91ADF002023DE1B08C9D2
:107ED0000AE0FCF749F9F8BD1D4608C9FD401C46FB
:107EE000B4402C4310C0121F042AF5D2F308C91A5B
:107EF000521EF0D40B78491C0370401C521EEAD469
:107F00000B78491C0370401C012AE4D409780170E5
:107F1000F8BD01E004C0091F0429FBD28B0701D57D
:107F20000280801CC90700D00270704700290BD066
:107F3000C30702D00270401C491E022904D38307E4
:107F400002D50280801C891EE3E70022EEE70022B2
:107F5000DFE70000F8B507460B46394619438907A5
:107F600013D1164CE601042A0FD302CB0D1B8D430F
:107F7000354202D102C0121FF5E7CBB20370401C9C
:107F8000521E002B13D0090AF7E7002A14D01978E3
:107F9000521E5B1C0170401C002908D0002A0BD027
:107FA0001978521E5B1C0170401C0029EDD1002A7B
:107FB00002D01146FFF7C9FF3846F8BD01010101A3
:107FC000002203098B422CD3030A8B4211D30023D6
:107FD0009C464EE003460B433CD4002243088B42B0
:107FE00031D303098B421CD3030A8B4201D394463D
:107FF0003FE0C3098B4201D3CB01C01A5241830930
:108000008B4201D38B01C01A524143098B4201D3E9
:108010004B01C01A524103098B4201D30B01C01A14
:108020005241C3088B4201D3CB00C01A524183088E
:108030008B4201D38B00C01A524143088B4201D3BB
:108040004B00C01A5241411A00D20146524110461B
:1080500070475DE0CA0F00D04942031000D3404290
:10806000534000229C4603098B422DD3030A8B42C6
:1080700012D3FC22890112BA030A8B420CD3890164
:1080800092118B4208D3890192118B4204D389014A
:108090003AD0921100E08909C3098B4201D3CB0188
:1080A000C01A524183098B4201D38B01C01A52413D
:1080B00043098B4201D34B01C01A524103098B4241
:1080C00001D30B01C01A5241C3088B4201D3CB002C
:1080D000C01A524183088B4201D38B00C01A52410F
:1080E000D9D243088B4201D34B00C01A5241411AE6
:1080F00000D20146634652415B10104601D3404214
:10810000002B00D54942704763465B1000D34042C4
:1081100001B50020C046C04602BD70477047704799
:10812000754600F025F8AE46050069465346C0087E
:10813000C000854618B020B5FCF742F860BC0027A7
:108140004908B6460026C0C5C0C5C0C5C0C5C0C523
:10815000C0C5C0C5C0C5403D49008D46704710B57B
:108160000446C046C0462046FBF7E7FF10BD0000AE
:1081700000487047642C002001491820ABBEFEE780
:1081800026000200704770B58C180578401C6B07FC
:108190005B0F01D10378401C2A1106D10278401CE4
:1081A00003E00678401C0E70491C5B1EF9D12B07BA
:1081B00005D40023521E0DD40B70491CFAE7037836
:1081C000401CCB1A921C03E01D780D70491C5B1CEF
:1081D000521EF9D5A142D8D3002070BD30B47446E8
:1081E000641E2578641CAB4204D3635D5B00E31816
:1081F00030BC18471D46F8E72315000023D1BCEA20
:108200005F782315DEEF121200000000000000006E
:1082100000000000002F000000000700070000140D
:108220007F147F1400242A7F2A120062640813231B
:1082300000364955225000000503000000001C22B2
:108240004100000041221C000014083E08140008F0
:10825000083E0808000000A06000000808080808A0
:10826000000060600000002010080402003E514938
:10827000453E0000427F40000042615149460021D6
:1082800041454B31001814127F10002745454539F0
:10829000003C4A494930000171090503003649494B
:1082A000493600064949291E000036360000000004
:1082B000563600000008142241000014141414144F
:1082C00000004122140800020151090600324959F8
:1082D000513E007C1211127C007F49494936003E14
:1082E00041414122007F4141221C007F49494941CF
:1082F000007F09090901003E4149497A007F0808C9
:10830000087F0000417F4100002040413F01007F85
:1083100008142241007F40404040007F020C027F51
:10832000007F0408107F003E4141413E007F090963
:108330000906003E4151215E007F09192946004689
:10834000494949310001017F0101003F4040403F60
:10835000001F2040201F003F4038403F00631408AA
:108360001463000708700807006151494543000085
:108370007F41410000552A552A55000041417F00A8
:10838000000402010204004040404040000001029D
:108390000400002054545478007F48444438003886
:1083A0004444442000384444487F0038545454180E
:1083B00000087E0901020018A4A4A47C007F080420
:1083C00004780000447D4000004080847D00007FF0
:1083D000102844000000417F4000007C041804780D
:1083E000007C0804047800384444443800FC242409
:1083F00024180018242418FC007C080404080048F1
:108400005454542000043F444020003C4040207C11
:10841000001C2040201C003C4030403C0044281000
:108420002844001CA0A0A07C004464544C441414B4
:1084300014141414000000000000000000000000EC
:1084400000000000000000F8000000000000003301
:108450003000000000100C06100C060000000000A8
:108460000000000040C07840C0784000043F040491
:108470003F040400007088FC08300000001820FF52
:10848000211E0000F008F000E018000000211C038D
:108490001E211E0000F00888700000001E21232409
:1084A0001927211010160E00000000000000000027
:1084B00000000000000000E01804020000000007B7
:1084C0001820400000020418E000000000402018BE
:1084D00007000000404080F0804040000202010F91
:1084E00001020200000000F0000000000101011F75
:1084F00001010100000000000000000080B07000D9
:108500000000000000000000000000000001010168
:1085100001010101000000000000000000303000F7
:1085200000000000000000008060180400601806D1
:108530000100000000E010080810E000000F10200B
:1085400020100F00001010F8000000000020203F55
:1085500020200000007008080888700000302824DF
:108560002221300000300888884830000018202080
:1085700020110E000000C02010F8000000070424A5
:10858000243F240000F808888808080000192120EA
:1085900020110E0000E0108888180000000F112044
:1085A00020110E0000380808C83808000000003FFD
:1085B000000000000070880808887000001C22215C
:1085C00021221C0000E010080810E0000000312209
:1085D00022110F00000000C0C000000000000030A9
:1085E00030000000000000800000000000008060FB
:1085F000000000000000804020100800000102047C
:108600000810200040404040404040000404040462
:10861000040404000008102040800000002010081E
:1086200004020100007048080808F0000000003053
:1086300036010000C030C828E810E00007182724E1
:1086400023140B000000C038E0000000203C23028F
:108650000227382008F8888888700000203F2020F2
:1086600020110E00C0300808080838000718202024
:108670002010080008F808080810E000203F20201B
:1086800020100F0008F88888E8081000203F2020FC
:108690002320180008F88888E8081000203F2000F0
:1086A00003000000C0300808083800000718202028
:1086B000221E020008F808000008F808203F2101E7
:1086C00001213F20000808F8080800000020203F92
:1086D0002020000000000808F8080800C080808002
:1086E0007F00000008F888C028180800203F2001FB
:1086F0002638200008F8080000000000203F202055
:108700002020300008F8F800F8F80800203F003F6B
:10871000003F200008F830C00008F808203F200083
:1087200007183F00E01008080810E0000F10202094
:1087300020100F0008F808080808F000203F210169
:1087400001010000E01008080810E0000F182424C0
:1087500038504F0008F8888888887000203F200033
:10876000030C3020007088080808380000382021E9
:1087700021221C00180808F8080818000000203FF3
:108780002000000008F808000008F808001F20205A
:1087900020201F000878880000C83808000007382B
:1087A0000E010000F80800F80008F800033C07007C
:1087B000073C0300081868808068180820302C03E4
:1087C000032C30200838C800C83808000000203FBB
:1087D0002000000010080808C838080020382621AA
:1087E00020201800000000FE020202000000007FAE
:1087F00040404000000C30C00000000000000001BC
:108800000638C00000020202FE00000000404040A6
:108810007F000000000004020202040000000000CB
:108820000000000000000000000000008080808048
:108830008080808000020204000000000000000030
:1088400000000000000080808080000000192422C9
:1088500022223F2008F8008080000000003F112005
:1088600020110E000000008080800000000E11200A
:1088700020201100000000808088F800000E1120E8
:1088800020103F200000808080800000001F2222F6
:1088900022221300008080F0888888180020203F62
:1088A000202000000000808080808000006B949475
:1088B0009493600008F8008080800000203F210031
:1088C00000203F2000809898000000000020203FFA
:1088D00020200000000000809898000000C08080E8
:1088E000807F000008F8000080808000203F240284
:1088F0002D302000000808F8000000000020203F74
:10890000202000008080808080808000203F200028
:108910003F20003F8080008080800000203F2100B9
:1089200000203F200000808080800000001F202069
:1089300020201F00808000808000000080FFA12098
:1089400020110E000000008080808000000E1120A9
:1089500020A0FF80808080008080800020203F2138
:1089600020000100000080808080800000332424EB
:1089700024241900008080E0808000000000001F97
:10898000202000008080000000808000001F202048
:1089900020103F20808080000080808000010E3009
:1089A0000806010080800080008080800F300C036A
:1089B0000C300F0000808000808080000020312E6D
:1089C0000E312000808080000080808080818E7049
:1089D0001806010000808080808080000021302CFB
:1089E0002221300000000000807C02020000000014
:1089F000003F404000000000FF00000000000000B9
:108A0000FF0000000002027C800000000040403FA8
:108A10000000000000060101020204040000000042
:108A200000000000448A010000200020D005000062
:108A3000868101006C8C0100D0250020F816000012
:108A400004410100117324F434FFFF1072035A1122
:108A50000C144B440110100404E4040FF40404F457
:108A600044CF44444404301040407D44447D444558
:108A7000447C44457C40402CC2B282012AFE05223F
:108A800080600A20201008040241807F2A08011D0E
:108A9000F8898E8801190A21268040201807454050
:108AA00080403F101010161252725AD29392D23256
:108AB00012121610181044442525150D04FE040C3E
:108AC0001525254444701342CC395E7302FE147F91
:108AD000201032FF150F3040F81702FE9292FE026E
:108AE0001F101116F01413C53010101F0808FF04D2
:108AF0008141310D030D3141812AF87B2AFF055256
:108B0000F819212C08087F10149F80F03A80BD18B6
:108B10000982E2A2928A868280C0416A40BE011A1E
:108B20003D40C0C0C02F3E8080C0C0E0011F60201B
:108B300030303060011BE0E0121BF0B00E3C3030F2
:108B4000700F192B19032A80290445F0381E780B61
:108B5000010303071F0F1F7F7FFF011AFE0458093F
:108B60004E4ECECE8F9A19F9125809FEFEFFFCFC2C
:108B7000F8F9FB224CC70101BE49A71BFCFCB63922
:108B80000B3BFEFE09013828080287878F8F8F9FD5
:108B900001880ADEFEFCF9F1F3F3E7E798180AFF13
:108BA000FFF7E7C78707070F0171001735040607AE
:108BB0000303011F1F030B1F1E0E06030F1F071FBA
:108BC0003C30205E060F6F6F7F01196B7909390AFF
:108BD00019071A3F01190818083F3E3C3C3818088D
:108BE0000182180448C0C080180BE0F0F8FCDECE0B
:108BF000C7C1C1F1081ACF763B8180011A8F0B5192
:108C0000851FFFFE605A0C011BFFFF8E7F1B1F1E7E
:108C10001C18189401372B0307750917019E0E0EB7
:108C20000F0703AE180E6060703030181F1F3CFE37
:108C3000E68383A70341C0C02819FFEFF7F5FEFCC8
:108C4000F3DFFFDFF8FEE6C9FFFF81F9FFE7F7FB7F
:108C500081FB7F011D3A010101404C101F3F018A39
:0C8C60007F0169FE093F5D01A7000000D4
:04000005000140C1F5
:00000001FF
